:100000000C9434000C9446000C9446000C9446006A
:100010000C9446000C9446000C9446000C94460048
:100020000C9446000C9446000C9446000C94460038
:100030000C9446000C9446000C9446000C94460028
:100040000C9446000C9446000C9446000C94460018
:100050000C9446000C9446000C9446000C94460008
:100060000C9446000C94460011241FBECFEFD8E03C
:10007000DEBFCDBF21E0A0E0B1E001C01D92A23003
:10008000B207E1F70E9460000C94B5000C940000E8
:10009000E4E6F0E080818F7D808384B5806484BD58
:1000A00084B58F7784BD84B5836084BD84B5877F34
:1000B00084BD85B5836085BD85B58B7F85BD08957D
:1000C0008AB180648AB98AB18F7B8AB98BB1806426
:1000D0008BB90E9448001E9919C08FE19EE40197D8
:1000E000F1F700C000001E9911C0809100019091AD
:1000F0000101019690930101809300011E9BFECFA8
:100100008FE19EE40197F1F700C0000080910001AB
:1001100090910101019719F48CE387BD1AC0809179
:10012000000190910101029719F480E887BD11C088
:100130008091000190910101039719F48FEA87BD26
:1001400008C08091000190910101049711F48FEF94
:1001500087BD809100019091010105970CF4BBCF00
:0E0160001092010110920001B6CFF894FFCF6B
:00000001FF
