:100000000C9434000C9446000C9446000C9446006A
:100010000C9446000C9446000C9446000C94460048
:100020000C9446000C9446000C9446000C94460038
:100030000C9446000C9446000C9446000C94460028
:100040000C9446000C9446000C9446000C94460018
:100050000C9446000C9446000C9446000C94460008
:100060000C9446000C94460011241FBECFEFD8E03C
:10007000DEBFCDBF21E0A0E0B1E001C01D92A23003
:10008000B207E1F70E9479000C94B0000C940000D4
:10009000E4E6F0E080818F7D808384B58F7B84BD32
:1000A00084B5806884BD84B5836084BD85B5877F51
:1000B00085BD85B5836085BD85B58B7F85BD08957C
:1000C000823061F018F4813031F011C0833049F092
:1000D000843051F00CC080E287BD08958BE487BD69
:1000E000089586E987BD08958FEF87BD089517BCF1
:1000F00008958AB180648AB984B18D7F84B985B14D
:10010000826085B90E9448001999FECF8FE19EE474
:100110000197F1F700C000001999F6CF8091000116
:1001200090910101019690930101809300018091CB
:10013000000190910101059724F0109201011092A5
:10014000000180910001909101010E946000199BC3
:10015000FECF8FE19EE40197F1F700C00000D4CFFD
:04016000F894FFCF41
:00000001FF
