:100000000C9434000C943E000C943E000C943E0082
:100010000C943E000C943E000C943E000C943E0068
:100020000C943E000C943E000C943E000C943E0058
:100030000C943E000C943E000C943E000C943E0048
:100040000C943E000C943E000C943E000C943E0038
:100050000C943E000C943E000C943E000C943E0028
:100060000C943E000C943E0011241FBECFEFD8E04C
:10007000DEBFCDBF0E9440000C946A000C940000CB
:100080008AB18F608AB984B18D7F84B985B182606D
:1000900085B98BB1807F8BB920E01999FECF8FE1B4
:1000A0009EE40197F1F700C00000199909C02F5F85
:1000B000199BFECF8FE19EE40197F1F700C000008D
:1000C000203108F020E08BB1807F922F9F70892B28
:0800D0008BB9E3CFF894FFCFD8
:00000001FF
