S0170000547261696E5F416E696D6174696F6E2E7372656310
S11300000C9434000C9449000C9449000C9449005D
S11300100C9449000C9449000C9449000C94490038
S11300200C9449000C9449000C9449000C94490028
S11300300C9449000C9449000C9449000C94490018
S11300400C9449000C9449000C9449000C94490008
S11300500C9449000C9449000C9449000C944900F8
S11300600C9449000C94490011241FBECFEFD8E032
S1130070DEBFCDBF11E0A0E0B1E0ECECF0E002C0E7
S113008005900D92A630B107D9F70E944B000C944D
S113009064000C9400008AB18E638AB980E090E019
S11300A00FC0FC01E050FF4F20812BB92FEF39E640
S11300B048E1215030404040E1F700C00000019683
S10F00C08530910574F3EACFF894FFCF6B
S10900CC020408102000EC
S9030000FC
