S01D0000747261666669636C696768745F776974685F696E742E737265634B
S11300000C9434000C94D4000C9446000C944600D8
S11300100C9446000C9446000C9446000C94460044
S11300200C9446000C9446000C9446000C948000FA
S11300300C9446000C9446000C9446000C94460024
S11300400C9446000C9446000C9446000C94460014
S11300500C9446000C9446000C9446000C94460004
S11300600C9446000C94460011241FBECFEFD8E038
S1130070DEBFCDBF21E0A0E0B1E001C01D92A230FF
S1130080B207E1F70E9454000C940F010C94000095
S1130090E9E6F0E080818E7F8083808182608083C6
S11300A08DB381608DBB089584B1876084B985B1B7
S11300B0887F85B98AB18F778AB98BB180688BB90B
S11300C00E94E3000E94480085B1816085B985B132
S11300D08D7F85B985B18B7F85B94F9BFECF8FE32B
S11300E09CE90197F1F700C000004F99F6CF199BE6
S11300F0FECF8FE19EE40197F1F700C00000EDCF41
S11301001F920F920FB60F9211248F9380910101C9
S11301108F5F809301018091000181112CC0809137
S113012001018A3051F485B18E7F85B985B1826031
S113013085B985B18B7F85B931C0809101018D303E
S113014051F485B18D7F85B985B18E7F85B985B12F
S1130150846085B923C0809101018731F9F410923C
S1130160010185B18D7F85B985B1816085B985B17E
S11301708B7F85B913C080910001813079F410928E
S1130180010180910101873049F485B18D7F85B9E2
S113019085B18B7F85B985B1816085B98F910F90C9
S11301A00FBE0F901F9018951F920F920FB60F92CB
S11301B011248F9381E0809300018F910F900FBEE3
S11301C00F901F901895109285001092840088E07B
S11301D09DE39093890080938800E0E8F0E08081BB
S11301E08F708083A4E6B0E08C91877F8C938081AC
S11301F08C7F8083E1E8F0E0808188608083808167
S11302008F7E808380818D7F8083808185608083E1
S1130210EFE6F0E080818260808378940895F8941A
S1050220FFCF0A
S9030000FC
