:100000000C9434000C9465000C9446000C9446004B
:100010000C9446000C9446000C9446000C94460048
:100020000C9446000C9446000C9446000C9454002A
:100030000C9446000C9446000C9446000C94460028
:100040000C9446000C9446000C9446000C94460018
:100050000C9446000C9446000C9446000C94460008
:100060000C9446000C94460011241FBECFEFD8E03C
:10007000DEBFCDBF21E0A0E0B1E001C01D92A33002
:10008000B207E1F70E9492000C942A010C94000040
:10009000E9E6F0E080818E7F8083808182608083CA
:1000A0008DB381608DBB08951F920F920FB60F9292
:1000B00011248F93809102018F5F809302018F91B1
:1000C0000F900FBE0F901F9018951F920F920FB6B2
:1000D0000F9211248F9381E0809301018F910F90F3
:1000E0000FBE0F901F90189585B1816085B985B1BD
:1000F0008D7F85B985B18B7F85B9089585B18E7F58
:1001000085B985B1826085B985B18B7F85B9089540
:1001100085B18D7F85B985B18E7F85B985B18460C4
:1001200085B9089584B1876084B985B1887F85B920
:100130008AB18B7F8AB98BB184608BB90E94FE0033
:100140000E9448000E947400809100018130E9F013
:1001500030F0823081F1833009F442C0F5CF8091D4
:1001600002018A3088F310920201809101018130EE
:1001700031F40E94740083E080930001E5CF0E9477
:100180007E0081E080930001DFCF80910201833007
:10019000D8F21092020180910101813031F40E9465
:1001A000740083E080930001CFCF0E94880082E03A
:1001B00080930001C9CF809102018A3028F2109209
:1001C000020180910101813031F40E94740083E0CA
:1001D00080930001B9CF0E94740010920001B4CF47
:1001E00080910201883008F4AFCF10920201109282
:1001F00001010E94740010920001A6CF10928500A8
:100200001092840088E09DE3909389008093880099
:10021000E0E8F0E080818F708083A4E6B0E08C910C
:10022000877F8C9380818C7F8083E1E8F0E0808100
:100230008860808380818F7E808380818D7F8083B2
:10024000808185608083EFE6F0E08081826080833A
:0802500078940895F894FFCFA3
:00000001FF
