:100000000C9434000C94C4000C9446000C944600EC
:100010000C9446000C9446000C9446000C94460048
:100020000C9446000C9446000C9446000C946E0010
:100030000C9446000C9446000C9446000C94460028
:100040000C9446000C9446000C9446000C94460018
:100050000C9446000C9446000C9446000C94460008
:100060000C9446000C94460011241FBECFEFD8E03C
:10007000DEBFCDBF21E0A0E0B1E001C01D92A23003
:10008000B207E1F70E9454000C941A010C9400008E
:10009000E9E6F0E080818E7F8083808182608083CA
:1000A0008DB381608DBB089584B1876084B985B1BB
:1000B000887F85B98AB18B7F8AB98BB184608BB90F
:1000C0000E94EE000E94480085B1816085B985B12B
:1000D0008D7F85B985B18B7F85B9FFCF1F920F9238
:1000E0000FB60F9211248F93809101018F5F80933F
:1000F00001018091000181112CC0809101018A30A1
:1001000051F485B18E7F85B985B1826085B985B19D
:100110008B7F85B933C0809101018D3051F485B159
:100120008D7F85B985B18E7F85B985B1846085B9AC
:1001300025C080910101873109F51092010185B137
:100140008D7F85B985B1816085B985B18B7F85B992
:1001500015C080910001813089F4809101018730C0
:1001600069F4109200011092010185B18D7F85B96B
:1001700085B18B7F85B985B1816085B98F910F90ED
:100180000FBE0F901F9018951F920F920FB60F92EF
:1001900011242F933F938F939F9381E080930001CD
:1001A0002AEA3BEC8FED90E02150304080409040B7
:1001B000D9F700001092010185B1816085B985B140
:1001C0008D7F85B985B18B7F85B99F918F913F9147
:1001D0002F910F900FBE0F901F90189510928500D1
:1001E0001092840088E09DE39093890080938800BA
:1001F000E0E8F0E080818F708083A4E6B0E08C912D
:10020000877F8C9380818C7F8083E1E8F0E0808120
:100210008860808380818F7E808380818D7F8083D2
:10022000808185608083EFE6F0E08081826080835A
:0802300078940895F894FFCFC3
:00000001FF
