S02100004176725F54656D705F53656E736F725F496E746572666163652E737265631C
S11300000C9434000C9451000C9451000C94510045
S11300100C9451000C9451000C9451000C94510018
S11300200C9451000C9451000C9451000C94510008
S11300300C9451000C941D030C9451000C94510029
S11300400C9451000C9451000C9451000C945100E8
S11300500C9451000C9451000C9451000C945100D8
S11300600C9451000C94510011241FBECFEFD8E022
S1130070DEBFCDBF11E0A0E0B1E0E2E6F0E102C0F6
S113008005900D92A039B107D9F721E0A0E9B1E0BC
S113009001C01D92A139B207E1F70E94C9010C9475
S11300A02F080C94000085B1886085B985E08A9595
S11300B0F1F7000085B1877F85B987EC90E001975F
S11300C0F1F700C0000008959BB1937C9BB983FFB6
S11300D003C09BB194609BB982FF03C09BB198603D
S11300E09BB981FF03C09BB190619BB980FF03C0A2
S11300F08BB180628BB90E9453000895CF93C82FAF
S1130100613021F485B1806185B903C085B18F7EEA
S113011085B98C2F82958F700E9464008C2F8F700C
S11301200E946400CF910895CF93C82F60E00E948D
S11301307E00C150C23030F48FE39FE10197F1F7A4
S113014000C00000CF91089584B1806184B984B166
S1130150886084B98AB18C638AB92FEF89EF90E003
S1130160215080409040E1F700C0000085B18F7EAF
S113017085B985B1877F85B983E090E00E946400EA
S11301808FE19EE40197F1F700C0000083E090E066
S11301900E9464009FE72AE186E09150204080405D
S11301A0E1F700C0000083E090E00E9464009FE754
S11301B02AE186E0915020408040E1F700C0000031
S11301C082E090E00E94640087E592E00197F1F7F5
S11301D000C0000088E20E94940088E00E9494001D
S11301E081E00E9494008FE19EE40197F1F700C042
S11301F0000086E00E9494008CE00E949400089520
S1130200882311F090E401C090E0862F8F70890F4D
S113021080680E949400089561E00E947E00089521
S1130220CF93DF93EC0103C021960E940C018881D7
S11302308111FACFDF91CF910895CF93DF93EC0131
S11302408A30910568F09C01ADECBCEC0E94360547
S11302509695879596958795969587950E941D0105
S11302609E01ADECBCEC0E9436059695879596955B
S11302708795969587959C01220F331F880F991FA8
S1130280880F991F880F991F820F931F9E01281BA7
S1130290390BC901805D0E940C01DF91CF91089553
S11302A08F929F92AF92BF92CF92DF92EF92FF9282
S11302B04B015C0120E030E0A9010E94DE038823A9
S11302C03CF48DE20E940C01B7FAB094B7F8B094F4
S11302D0C501B4010E94E3036B017C01CB010E94C0
S11302E01D018EE20E940C01B60180E090E00E94A4
S11302F012049B01AC01C501B4010E94710320E00A
S113030030E048EC52E40E94C90420E030E040E0D0
S11303105FE30E9472030E94E3036B017C018AE0A5
S1130320C816D10418F480E30E940C01C6010E948F
S11303301D01FF90EF90DF90CF90BF90AF909F9002
S11303408F900895ECE7F0E0808180648083808161
S1130350807F8083AAE7B0E08C9187608C93808152
S11303608F7D80830895EAE7F0E080818068808350
S113037080818064808380917A0084FFFCCFEAE7E7
S1130380F0E0808180618083809178009091790091
S11303900895CF93DF93CDB7DEB764970FB6F89483
S11303A0DEBF0FBECDBF0E94FA020E94F3020E947C
S11303B0A4000E94A2010E94480310E00E94B3011D
S11303C0BC0180E090E00E94120423E23BED49EF7F
S11303D05EE30E94C9046B017C010E94E3034B01AC
S11303E05C0180E090E00E9412049B01AC01C70113
S11303F0B6010E94710320E030E048EC52E40E9410
S1130400C9040E94E3037F936F939F928F9280E0CD
S113041091E09F938F93CE0101965C019F938F93FC
S11304200E944505C5010E9464039FEF25EA8EE002
S1130430915020408040E1F700C000000FB6F894CE
S1130440DEBF0FBECDBF20E030E048E452E4C70178
S1130450B6010E94C404181654F560E080E00E94BE
S1130460000188E191E00E94100160E081E00E94B7
S11304700001C701B6010E9450018FED0E940C01DA
S11304808FE291E00E94100181E391E00E9410014B
S113049095B182E0892785B99FEF29E688E19150DB
S11304A020408040E1F700C0000011E087CF113008
S11304B0A9F520E030E040E252E4C701B6010E9411
S11304C0C40418165CF520E030E048E452E4C701A7
S11304D0B6010E94DE0388230CF560E080E00E94F0
S11304E000018BE391E00E94100160E081E00E9432
S11304F00001C701B6010E9450018FED0E940C015A
S11305008FE491E00E9410019FEF25EA8EE0915064
S113051020408040E1F700C0000050CF1130C9F501
S113052020E030E040EF51E4C701B6010E94C4046A
S113053018167CF520E030E040E252E4C701B60131
S11305400E94DE0388232CF560E080E00E94000115
S11305508BE591E00E94100185B18D7F85B960E043
S113056081E00E940001C701B6010E9450018FED95
S11305700E940C0183E791E00E9410019FEF25EA9D
S11305808EE0915020408040E1F700C0000010E070
S113059015CF81E00E9494008FE19EE40197F1F76A
S11305A000C0000060E080E00E94000183E891E068
S11305B00E94100160E081E00E940001C701B601C1
S11305C00E9450018FED0E940C018FE491E00E9483
S11305D010019FEF25EA8EE0915020408040E1F722
S11305E000C00000EBCE84B1816084B985B18C7FFA
S11305F085B908951092850010928400E0E8F0E037
S113060080818F708083A4E6B0E08C91877F8C9387
S113061080818C7F8083E1E8F0E08081877E808325
S113062080818B7F8083808183608083EFE6F0E02C
S1130630808181608083789408951F920F920FB611
S11306400F9211248F939F93809190018F5F8093D9
S1130650900180919001813031F488EB97E190937F
S113066085008093840080919001823050F095B190
S113067081E0892785B9109290011092850010922B
S113068084009F918F910F900FBE0F901F9018952B
S113069087E68093C4001092C500A1ECB0E08C9171
S11306A088618C93E2ECF0E080818F7380838C917D
S11306B08B7F8C9380818660808380818F7C808314
S11306C08081877F80830895FC0107C09091C000DA
S11306D095FFFCCF8093C600319680818111F6CFBF
S11306E008955058BB27AA270E9489030C948A04B2
S11306F00E947C0438F00E94830420F039F49F3F68
S113070019F426F40C9479040EF4E095E7FB0C94A8
S11307107304E92F0E949B0458F3BA176207730706
S11307208407950720F079F4A6F50C94BD040EF423
S1130730E0950B2EBA2FA02D0B01B90190010C01ED
S1130740CA01A0011124FF27591B99F0593F50F405
S1130750503E68F11A16F040A22F232F342F44275D
S1130760585FF3CF469537952795A795F040539555
S1130770C9F77EF41F16BA0B620B730B840BBAF025
S11307809150A1F0FF0FBB1F661F771F881FC2F790
S11307900EC0BA0F621F731F841F48F487957795A4
S11307A06795B795F7959E3F08F0B0CF9395880F5E
S11307B008F09927EE0F9795879508950E944F04A6
S11307C008F481E008950E94A30488F09F5798F0EC
S11307D0B92F9927B751B0F0E1F0660F771F881F42
S11307E0991F1AF0BA95C9F714C0B13091F00E945C
S11307F0BD04B1E008950C94BD04672F782F8827B9
S1130800B85F39F0B93FCCF3869577956795B39582
S1130810D9F73EF490958095709561957F4F8F4FF1
S11308209F4F0895E89409C097FB3EF490958095F6
S1130830709561957F4F8F4F9F4F9923A9F0F92FA2
S113084096E9BB279395F695879577956795B79520
S1130850F111F8CFFAF4BB0F11F460FF1BC06F5F06
S11308607F4F8F4F9F4F16C0882311F096E911C018
S1130870772321F09EE8872F762F05C0662371F039
S113088096E8862F70E060E02AF09A95660F771F4D
S1130890881FDAF7880F9695879597F90895990F29
S11308A00008550FAA0BE0E8FEEF16161706E80736
S11308B0F907C0F012161306E407F50798F0621B57
S11308C0730B840B950B39F40A2661F0232B242B2C
S11308D0252B21F408950A2609F4A140A6958FEF4B
S11308E0811D811D089597F99F6780E870E060E09D
S11308F008959FEF80EC089500240A9416161706B5
S113090018060906089500240A94121613061406FC
S113091005060895092E0394000C11F4882352F05F
S1130920BB0F40F4BF2B11F460FF04C06F5F7F4F17
S11309308F4F9F4F089557FD9058440F551F59F0FE
S11309405F3F71F04795880F97FB991F61F09F3FB8
S113095079F087950895121613061406551FF2CFE1
S11309604695F1DF08C0161617061806991FF1CF31
S113097086957105610508940895E894BB27662758
S11309807727CB0197F908950E944F0408F48FEF5D
S113099008950E94DC040C948A040E947C0438F0BC
S11309A00E94830420F0952311F00C9473040C949A
S11309B0790411240C94BE040E949B0470F3959F47
S11309C0C1F3950F50E0551F629FF001729FBB2742
S11309D0F00DB11D639FAA27F00DB11DAA1F649FDE
S11309E06627B00DA11D661F829F2227B00DA11D91
S11309F0621F739FB00DA11D621F839FA00D611D17
S1130A00221F749F3327A00D611D231F849F600D37
S1130A10211D822F762F6A2F11249F5750409AF060
S1130A20F1F088234AF0EE0FFF1FBB1F661F771FEC
S1130A30881F91505040A9F79E3F510580F00C94B7
S1130A4073040C94BE045F3FE4F3983ED4F386959C
S1130A5077956795B795F795E7959F5FC1F7FE2B57
S1130A60880F911D9695879597F90895A29FB001D7
S1130A70B39FC001A39F700D811D1124911DB29FCE
S1130A80700D811D1124911D0895AEE0B0E0EBE4DA
S1130A90F5E00C9406080D891E8986E08C831A8380
S1130AA009838FEF9FE79E838D83AE01475E5F4F7F
S1130AB06F89788DCE0101960E946705EF81F885D4
S1130AC0E00FF11F10822E96E4E00C942208ABE0B4
S1130AD0B0E0EDE6F5E00C94F8076C017B018A01C7
S1130AE0FC0117821682838181FFCCC1CE0101965D
S1130AF03C01F6019381F70193FD859193FF819168
S1130B007F01882309F4BAC1853239F493FD8591B4
S1130B1093FF81917F01853229F4B60190E00E9410
S1130B205E07E7CF912C212C312CFFE1F315D8F08F
S1130B308B3279F038F4803279F08332A1F4232DAA
S1130B4020611DC08D3261F0803369F4232D216052
S1130B5016C0832D8260382EE32DE4603E2E2AC019
S1130B60F32DF8601DC037FC2DC020ED280F2A306E
S1130B7040F08E32B9F436FC81C1232D2064322E2C
S1130B8019C036FE06C08AE0989E200D1124922ECC
S1130B9011C0EAE02E9E200D1124222EF32DF062C6
S1130BA03F2E08C08C3621F4832D8068382E02C075
S1130BB0883641F4F70193FD859193FF81917F017C
S1130BC08111B3CF982F9F7D9554933028F40C5FF7
S1130BD01F4F9FE399830DC0833631F0833771F043
S1130BE0833509F059C021C0F801808189830E5FE3
S1130BF01F4F88248394912C530113C02801F2E0E1
S1130C004F0E511CF801A080B18036FE03C0692D3F
S1130C1070E002C06FEF7FEFC5010E9453074C01E3
S1130C208201F32DFF773F2E16C0280122E0420EE9
S1130C30511CF801A080B18036FE03C0692D70E01C
S1130C4002C06FEF7FEFC5010E9448074C01F32DEE
S1130C50F0683F2E820133FC1BC0822D90E0881681
S1130C609906B0F4B60180E290E00E945E072A94EF
S1130C70F4CFF50137FC859137FE81915F01B60110
S1130C8090E00E945E0721102A9421E0821A9108C4
S1130C908114910471F7E8C0843611F0893641F566
S1130CA0F80137FE07C060817181828193810C5FF6
S1130CB01F4F08C060817181072E000C880B990BAF
S1130CC00E5F1F4FF32DFF763F2E97FF09C09095BF
S1130CD08095709561957F4F8F4F9F4FF0683F2EA1
S1130CE02AE030E0A3010E949A07882E861845C0A6
S1130CF0853731F4232D2F7EB22E2AE030E025C033
S1130D00932D997FB92E8F36C1F018F4883579F078
S1130D10B5C0803719F0883721F0B0C0E92FE06101
S1130D20BE2EB4FE0DC0FB2DF460BF2E09C034FEF0
S1130D300AC0292F2660B22E06C028E030E005C084
S1130D4020E130E002C020E132E0F801B7FE07C044
S1130D5060817181828193810C5F1F4F06C0608125
S1130D60718180E090E00E5F1F4FA3010E949A07FB
S1130D70882E8618FB2DFF773F2E36FE0DC0232DBF
S1130D802E7FA22E891458F434FE0BC032FC09C005
S1130D90832D8E7EA82E05C0B82CA32C03C0B82C9E
S1130DA001C0B92CA4FE0FC0FE01E80DF11D808125
S1130DB0803321F49A2D997EA92E09C0A2FE06C083
S1130DC0B394B39404C08A2D867809F0B394A3FC39
S1130DD011C0A0FE06C0B21488F4280C922C9B18F3
S1130DE00EC0B21460F4B60180E290E00E945E0787
S1130DF0B394F7CFB21418F42B1802C0982C212CFA
S1130E00A4FE10C0B60180E390E00E945E07A2FE3B
S1130E1017C0A1FC03C088E790E002C088E590E019
S1130E20B6010CC08A2D867859F0A1FE02C08BE26F
S1130E3001C080E2A7FC8DE2B60190E00E945E074B
S1130E40891438F4B60180E390E00E945E079A9416
S1130E50F7CF8A94F301E80DF11D8081B60190E08B
S1130E600E945E078110F5CF222009F442CEB6011C
S1130E7080E290E00E945E072A94F6CFF601868114
S1130E80978102C08FEF9FEF2B96E2E10C94140838
S1130E90FC010590615070400110D8F78095909541
S1130EA08E0F9F1F0895FC01615070400190011046
S1130EB0D8F7809590958E0F9F1F08950F931F93D9
S1130EC0CF93DF93FB01238121FD03C08FEF9FEFBD
S1130ED02CC022FF16C046815781248135814217D8
S1130EE0530744F4A081B1819D012F5F3F4F3183AB
S1130EF020838C93268137812F5F3F4F378326834E
S1130F0014C08B01EC01FB010084F185E02D0995EF
S1130F10892BE1F6D80116968D919C91179701962D
S1130F2017969C938E931697CE01DF91CF911F91C4
S1130F300F910895FA01AA27283051F1203181F147
S1130F40E8946F936E7F6E5F7F4F8F4F9F4FAF4FCD
S1130F50B1E03ED0B4E03CD0670F781F891F9A1FE0
S1130F60A11D680F791F8A1F911DA11D6A0F711D94
S1130F70811D911DA11D20D009F468943F912AE0A0
S1130F80269F11243019305D3193DEF6CF01089588
S1130F90462F4770405D4193B3E00FD0C9F7F6CFB9
S1130FA0462F4F70405D4A3318F0495D31FD405281
S1130FB0419302D0A9F7EACFB4E0A6959795879517
S1130FC077956795BA95C9F70097610571050895F6
S1130FD09B01AC010A2E06945795479537952795A2
S1130FE0BA95C9F7620F731F841F951FA01D08953A
S1130FF02F923F924F925F926F927F928F929F9225
S1131000AF92BF92CF92DF92EF92FF920F931F9312
S1131010CF93DF93CDB7DEB7CA1BDB0B0FB6F894C3
S1131020DEBF0FBECDBF09942A88398848885F8403
S11310306E847D848C849B84AA84B984C884DF8074
S1131040EE80FD800C811B81AA81B981CE0FD11D58
S11310500FB6F894DEBF0FBECDBFED010895F8942E
S1051060FFCFBC
S113106241746D6F732E54656D703A2025642E257C
S113107230326420430D0A00416C61726D696E67FF
S11310822054656D7021212020202020202000433F
S113109200205265642E54656D700054656D702095
S11310A2526564636E672E2E202020202020004388
S11310B220202020202020202020004E6F726D61ED
S11310C26C2054656D702E202020202020202020AA
S11310D22020004320202020202020202020202007
S11310E220200041746D6F732E54656D703A0000B8
S9030000FC
