:100000000C9434000C9446000C9446000C9446006A
:100010000C9446000C9446000C9446000C94460048
:100020000C9446000C9446000C9446000C945A0024
:100030000C9446000C9446000C9446000C94460028
:100040000C9446000C9446000C9446000C94460018
:100050000C9446000C9446000C9446000C94460008
:100060000C9446000C94460011241FBECFEFD8E03C
:10007000DEBFCDBF21E0A0E0B1E001C01D92A13004
:10008000B207E1F70E9448000C94BE000C940000F7
:1000900084B1876084B985B1887F85B90E94950055
:1000A00085B1816085B985B18D7F85B985B18B7F3B
:1000B00085B9FFCF1F920F920FB60F9211248F9325
:1000C000809100018F5F80930001809100018A3050
:1000D00051F485B18E7F85B985B1826085B985B1CE
:1000E0008B7F85B90DC0809100018D3049F485B1B9
:1000F0008D7F85B985B18E7F85B985B1846085B9DD
:1001000080910001873159F41092000185B18D7FF3
:1001100085B985B1816085B985B18B7F85B98F91AE
:100120000F900FBE0F901F9018951092850010929F
:10013000840088E09DE39093890080938800E0E844
:10014000F0E080818F708083A4E6B0E08C91877F9F
:100150008C9380818C7E8083E1E8F0E080818860F0
:10016000808380818D7F8083808185608083EFE6BE
:10017000F0E080818260808378940895F894FFCFC6
:00000001FF
