:100000000C9434000C943E000C943E000C943E0082
:100010000C943E000C943E000C943E000C943E0068
:100020000C943E000C943E000C943E000C943E0058
:100030000C943E000C943E000C943E000C943E0048
:100040000C943E000C943E000C943E000C943E0038
:100050000C943E000C943E000C943E000C943E0028
:100060000C943E000C943E0011241FBECFEFD8E04C
:10007000DEBFCDBF0E9440000C9471000C940000C4
:100080008AB180678AB984B18D7F84B985B1826075
:1000900085B98BB180648BB98BB18F7D8BB99BB1E6
:1000A00080E189278BB92FEF81EE94E021508040C9
:1000B0009040E1F700C000001999F1CF8FE39CE96F
:1000C0000197F1F700C000001999E9CF9BB180E4D6
:1000D00089278BB99BB180E289278BB9199BFECF09
:0600E000DECFF894FFCF13
:00000001FF
