:100000000C9434000C9446000C9446000C9446006A
:100010000C9446000C9446000C9446000C946B0023
:100020000C9446000C9446000C9446000C94590025
:100030000C9446000C9446000C9446000C94460028
:100040000C9446000C9446000C9446000C94460018
:100050000C9446000C9446000C9446000C94460008
:100060000C9446000C94460011241FBECFEFD8E03C
:10007000DEBFCDBF21E0A0E0B1E001C01D92A13004
:10008000B207E1F70E9448000C94D8000C940000DD
:1000900084B1826084B984B1846084B985B18D7F74
:1000A00085B985B18B7F85B90E9488000E94B40014
:1000B000FFCF1F920F920FB60F9211248F939F9331
:1000C00095B182E0892785B99F918F910F900FBEDE
:1000D0000F901F9018951F920F920FB60F92112438
:1000E0008F939F93809100018F5F80930001809197
:1000F00000018F3130F095B184E0892785B91092E5
:1001000000019F918F910F900FBE0F901F90189537
:10011000E0E8F0E080818F73808380818C7F808332
:10012000E1E8F0E080818F7E808380818860808339
:1001300080818560808380818D7F808381E19AE7E3
:10014000909389008093880010928500109284001B
:10015000E4E6F0E08081877F8083EFE6F0E0808155
:100160008260808378940895E0EBF0E080818F7363
:10017000808380818E7F8083808182608083E1EBB9
:10018000F0E08081877F80838081876080838AEF31
:100190008093B3001092B200E4E6F0E080818F7BA0
:1001A0008083E0E7F0E08081826080837894089526
:0401B000F894FFCFF1
:00000001FF
